:020000040800F2
:1000000000000120951E0008791B00087D1B0008D8
:10001000911B0008931B0008951B000800000000BE
:1000200000000000000000000000000061AE0008B9
:10003000971B00080000000001AF0008991B000892
:10004000DD1E0008DD1E0008DD1E0008DD1E0008A4
:10005000DD1E0008DD1E0008DD1E0008DD1E000894
:10006000DD1E0008DD1E0008DD1E0008DD1E000884
:10007000DD1E0008DD1E0008DD1E0008DD1E000874
:10008000DD1E0008DD1E0008DD1E0008DD1E000864
:10009000DD1E0008DD1E0008DD1E0008DD1E000854
:1000A000DD1E0008DD1E0008DD1E0008DD1E000844
:1000B000DD1E0008DD1E0008DD1E0008DD1E000834
:1000C000DD1E0008DD1E0008DD1E0008DD1E000824
:1000D000DD1E0008B11B0008DD1E0008DD1E000843
:1000E000DD1E0008DD1E0008DD1E0008DD1E000804
:1000F000DD1E0008DD1E0008DD1E0008DD1E0008F4
:10010000DD1E0008DD1E0008DD1E0008DD1E0008E3
:10011000DD1E0008DD1E0008DD1E0008DD1E0008D3
:10012000DD1E0008DD1E0008DD1E0008DD1E0008C3
:1001300000000000000000000000000000000000BF
:1001400000000000000000000000000000000000AF
:10015000000000000000000000000000000000009F
:10016000000000000000000000000000000000008F
:10017000000000000000000000000000000000007F
:10018000000000000000000000000000000000006F
:10019000000000000000000000000000000000005F
:1001A000000000000000000000000000000000004F
:1001B000000000000000000000000000000000003F
:1001C000000000000000000000000000000000002F
:1001D000000000000000000000000000000000001F
:0401E0005FF8E0F1F3
:1001F00010B5054C237833B9044B13B10448AFF361
:1002000000800123237010BDA00A00200000000020
:100210006C08040808B5034B1BB103490348AFF34E
:10022000008008BD00000000A40A00206C0804083B
:1002300081F0004102E000BF83F0004330B54FEA97
:1002400041044FEA430594EA050F08BF90EA020F04
:100250001FBF54EA000C55EA020C7FEA645C7FEA97
:10026000655C00F0E2804FEA5454D4EB5555B8BFBA
:100270006D420CDD2C4480EA020281EA030382EA2B
:10028000000083EA010180EA020281EA0303362DBD
:1002900088BF30BD11F0004F4FEA01314FF4801C90
:1002A0004CEA113102D0404261EB410113F0004FA2
:1002B0004FEA03334CEA133302D0524263EB430359
:1002C00094EA050F00F0A780A4F10104D5F1200EF7
:1002D0000DDB02FA0EFC22FA05F2801841F1000152
:1002E00003FA0EF2801843FA05F359410EE0A5F126
:1002F00020050EF1200E012A03FA0EFC28BF4CF057
:10030000020C43FA05F3C01851EBE37101F000450C
:1003100007D54FF0000EDCF1000C7EEB00006EEB19
:100320000101B1F5801F1BD3B1F5001F0CD34908A3
:100330005FEA30004FEA3C0C04F101044FEA4452FA
:1003400012F5800F80F09A80BCF1004F08BF5FEA81
:10035000500C50F1000041EB045141EA050130BD61
:100360005FEA4C0C404141EB0101013C28BFB1F573
:10037000801FE9D291F0000F04BF01460020B1FABE
:1003800081F308BF2033A3F10B03B3F120020CDA91
:100390000C3208DD02F1140CC2F10C0201FA0CF06F
:1003A00021FA02F10CE002F11402D8BFC2F1200CD4
:1003B00001FA02F120FA0CFCDCBF41EA0C0190408A
:1003C000E41AA2BF01EB0451294330BD6FEA0404D3
:1003D0001F3C1CDA0C340EDC04F11404C4F12002BE
:1003E00020FA04F001FA02F340EA030021FA04F3D0
:1003F00045EA030130BDC4F10C04C4F1200220FA27
:1004000002F001FA04F340EA0300294630BD21FA64
:1004100004F0294630BD94F0000F83F4801306BF2A
:1004200081F480110134013D4EE77FEA645C18BF1E
:100430007FEA655C29D094EA050F08BF90EA020FB5
:1004400005D054EA000C04BF1946104630BD91EAAD
:10045000030F1EBF0021002030BD5FEA545C05D1B0
:100460004000494128BF41F0004130BD14F58004EF
:100470003CBF01F5801130BD01F0004545F0FE4163
:1004800041F470014FF0000030BD7FEA645C1ABF98
:10049000194610467FEA655C1CBF0B46024650EACF
:1004A000013406BF52EA033591EA030F41F40021FB
:1004B00030BD00BF90F0000F04BF0021704730B581
:1004C0004FF4806404F132044FF000054FF0000156
:1004D00050E700BF90F0000F04BF0021704730B517
:1004E0004FF4806404F1320410F0004548BF4042EC
:1004F0004FF000013EE700BF42004FEAE2014FEA41
:1005000031014FEA02701FBF12F07F4393F07F4F1B
:1005100081F06051704732F07F4208BF704793F01E
:100520007F4F04BF41F40021704730B54FF4607431
:1005300001F0004521F000411CE700BF50EA010234
:1005400008BF704730B54FF000050AE050EA0102DD
:1005500008BF704730B511F0004502D5404261EB4D
:1005600041014FF4806404F132045FEA915C3FF48E
:10057000D8AE4FF003025FEADC0C18BF03325FEA2B
:10058000DC0C18BF033202EBDC02C2F1200300FADC
:1005900003FC20FA02F001FA03FE40EA0E0021FA01
:1005A00002F11444BDE600BF70B54FF0FF0C4CF4EF
:1005B000E06C1CEA11541DBF1CEA135594EA0C0FA1
:1005C00095EA0C0F00F0DEF82C4481EA030621EADC
:1005D0004C5123EA4C5350EA013518BF52EA033517
:1005E00041F4801143F4801338D0A0FB02CE4FF0C9
:1005F0000005E1FB02E506F00042E0FB03E54FF0F9
:100600000006E1FB03569CF0000F18BF4EF0010EF0
:10061000A4F1FF04B6F5007F64F5407404D25FEAEC
:100620004E0E6D4146EB060642EAC62141EA55519F
:100630004FEAC52040EA5E504FEACE2EB4F1FD0CE1
:1006400088BFBCF5E06F1ED8BEF1004F08BF5FEA5F
:10065000500E50F1000041EB045170BD06F0004611
:1006600046EA010140EA020081EA0301B4EB5C04BE
:10067000C2BFD4EB0C0541EA045170BD41F48011B6
:100680004FF0000E013C00F3AB8014F1360FDEBFDB
:10069000002001F0004170BDC4F10004203C35DAB7
:1006A0000C341BDC04F11404C4F1200500FA05F33A
:1006B00020FA04F001FA05F240EA020001F00042DB
:1006C00021F0004110EBD37021FA04F642EB060151
:1006D0005EEA430E08BF20EAD37070BDC4F10C047B
:1006E000C4F1200500FA04F320FA05F001FA04F23F
:1006F00040EA020001F0004110EBD37041F100012B
:100700005EEA430E08BF20EAD37070BDC4F1200535
:1007100000FA05F24EEA020E20FA04F301FA05F29D
:1007200043EA020321FA04F001F0004121FA04F245
:1007300020EA020000EBD3705EEA430E08BF20EA15
:10074000D37070BD94F0000F0FD101F0004640004F
:1007500041EB010111F4801F08BF013CF7D041EAD1
:10076000060195F0000F18BF704703F000465200D5
:1007700043EB030313F4801F08BF013DF7D043EAA6
:100780000603704794EA0C0F0CEA135518BF95EA5C
:100790000C0F0CD050EA410618BF52EA4306D1D1E3
:1007A00081EA030101F000414FF0000070BD50EA02
:1007B000410606BF1046194652EA430619D094EA8C
:1007C0000C0F02D150EA013613D195EA0C0F05D176
:1007D00052EA03361CBF104619460AD181EA0301CA
:1007E00001F0004141F0FE4141F470014FF0000082
:1007F00070BD41F0FE4141F4780170BD70B54FF01D
:10080000FF0C4CF4E06C1CEA11541DBF1CEA13559C
:1008100094EA0C0F95EA0C0F00F0A7F8A4EB05047E
:1008200081EA030E52EA03354FEA013100F0888075
:100830004FEA03334FF0805545EA131343EA12633E
:100840004FEA022245EA111545EA10654FEA0026F3
:100850000EF000419D4208BF964244F1FD0404F5AC
:10086000407402D25B084FEA3202B61A65EB030508
:100870005B084FEA32024FF480104FF4002CB6EBC5
:10088000020E75EB030E22BFB61A754640EA0C0045
:100890005B084FEA3202B6EB020E75EB030E22BF85
:1008A000B61A754640EA5C005B084FEA3202B6EBC6
:1008B000020E75EB030E22BFB61A754640EA9C0085
:1008C0005B084FEA3202B6EB020E75EB030E22BF55
:1008D000B61A754640EADC0055EA060E18D04FEA13
:1008E000051545EA16754FEA06164FEAC30343EAB3
:1008F00052734FEAC2025FEA1C1CC0D111F4801F80
:100900000BD141EA00014FF000004FF0004CB6E778
:1009100011F4801F04BF01430020B4F1FD0C88BF17
:10092000BCF5E06F3FF6AFAEB5EB030C04BFB6EB22
:10093000020C5FEA500C50F1000041EB045170BD15
:100940000EF0004E4EEA113114EB5C04C2BFD4EB42
:100950000C0541EA045170BD41F480114FF0000EC6
:10096000013C90E645EA060E8DE60CEA135594EA42
:100970000C0F08BF95EA0C0F3FF43BAF94EA0C0F45
:100980000AD150EA01347FF434AF95EA0C0F7FF4BA
:1009900025AF104619462CE795EA0C0F06D152EA0E
:1009A00003353FF4FDAE1046194622E750EA4106F2
:1009B00018BF52EA43067FF4C5AE50EA41047FF403
:1009C0000DAF52EA43057FF4EBAE12E74FF0FF3C68
:1009D00006E000BF4FF0010C02E000BF4FF0010C39
:1009E0004DF804CD4FEA410C7FEA6C5C4FEA430CB2
:1009F00018BF7FEA6C5C1BD001B050EA410C0CBF01
:100A000052EA430C91EA030F02BF90EA020F002062
:100A1000704710F1000F91EA030F58BF994208BFC9
:100A200090422CBFD8176FEAE37040F00100704786
:100A30004FEA410C7FEA6C5C02D150EA013C07D1DD
:100A40004FEA430C7FEA6C5CD6D152EA033CD3D028
:100A50005DF8040B704700BF8446104662468C4622
:100A60001946634600E000BF01B5FFF7B7FF002855
:100A700048BF10F1000F01BD4DF808EDFFF7F4FF7E
:100A80000CBF012000205DF808FB00BF4DF808ED09
:100A9000FFF7EAFF34BF012000205DF808FB00BF2C
:100AA0004DF808EDFFF7E0FF94BF012000205DF84E
:100AB00008FB00BF4DF808EDFFF7CEFF94BF012003
:100AC00000205DF808FB00BF4DF808EDFFF7C4FFFC
:100AD00034BF012000205DF808FB00BF4FEA410C45
:100AE0007FEA6C5C02D150EA013C0AD14FEA430C28
:100AF0007FEA6C5C02D152EA033C02D14FF0000065
:100B000070474FF0010070474A0011D212F50012F1
:100B100011D20DD56FF47873B3EB62520ED44FEA55
:100B2000C12343F0004343EA505323FA02F07047D5
:100B30004FF00000704750EA013002D14FF0FF3013
:100B400070474FF00000704780F0004002E000BFA7
:100B500081F0004142001FBF5FEA410392EA030FA8
:100B60007FEA226C7FEA236C6AD04FEA1262D2EBF2
:100B70001363C1BFD218414048404140B8BF5B42F7
:100B8000192B88BF704710F0004F40F4000020F090
:100B90007F4018BF404211F0004F41F4000121F0A6
:100BA0007F4118BF494292EA030F3FD0A2F10102F0
:100BB00041FA03FC10EB0C00C3F1200301FA03F12E
:100BC00000F0004302D5494260EB4000B0F5000F51
:100BD00013D3B0F1807F06D340084FEA310102F110
:100BE0000102FE2A51D2B1F1004F40EBC25008BFC2
:100BF00020F0010040EA03007047490040EB00008C
:100C0000013A28BFB0F5000FEDD2B0FA80FCACF18C
:100C1000080CB2EB0C0200FA0CF0AABF00EBC250B9
:100C200052421843BCBFD0401843704792F0000FA7
:100C300081F4000106BF80F400000132013BB5E7FA
:100C40004FEA41037FEA226C18BF7FEA236C21D070
:100C500092EA030F04D092F0000F08BF08467047D5
:100C600090EA010F1CBF0020704712F07F4F04D1A3
:100C7000400028BF40F00040704712F100723CBFB6
:100C800000F50000704700F0004343F0FE4040F4E0
:100C9000000070477FEA226216BF08467FEA23639E
:100CA0000146420206BF5FEA412390EA010F40F489
:100CB000800070474FF0000304E000BF10F00043D5
:100CC00048BF40425FEA000C08BF704743F09643BC
:100CD00001464FF000001CE050EA010208BF7047D7
:100CE0004FF000030AE000BF50EA010208BF70475E
:100CF00011F0004302D5404261EB41015FEA010C73
:100D000002BF84460146002043F0B64308BFA3F16A
:100D10008053A3F50003BCFA8CF2083AA3EBC2534C
:100D200010DB01FA02FC634400FA02FCC2F120026B
:100D3000BCF1004F20FA02F243EB020008BF20F0A2
:100D40000100704702F1200201FA02FCC2F1200208
:100D500050EA4C0021FA02F243EB020008BF20EAFD
:100D6000DC7070474FF0FF0C1CEAD0521EBF1CEA2B
:100D7000D15392EA0C0F93EA0C0F6FD01A4480EA19
:100D8000010C400218BF5FEA41211ED04FF0006302
:100D900043EA501043EA5111A0FB01310CF000402E
:100DA000B1F5000F3EBF490041EAD3715B0040EA54
:100DB000010062F17F02FD2A1DD8B3F1004F40EB24
:100DC000C25008BF20F00100704790F0000F0CF0F7
:100DD000004C08BF49024CEA502040EA51207F3ABB
:100DE000C2BFD2F1FF0340EAC250704740F4000096
:100DF0004FF00003013A5DDC12F1190FDCBF00F087
:100E000000407047C2F10002410021FA02F1C2F134
:100E1000200200FA02FC5FEA310040F1000053EAD0
:100E20004C0308BF20EADC70704792F0000F00F01E
:100E3000004C02BF400010F4000F013AF9D040EA24
:100E40000C0093F0000F01F0004C02BF490011F4B8
:100E5000000F013BF9D041EA0C018FE70CEAD153B6
:100E600092EA0C0F18BF93EA0C0F0AD030F0004C36
:100E700018BF31F0004CD8D180EA010000F00040EA
:100E8000704790F0000F17BF90F0004F084691F0A8
:100E9000000F91F0004F14D092EA0C0F01D14202E2
:100EA0000FD193EA0C0F03D14B0218BF084608D1AB
:100EB00080EA010000F0004040F0FE4040F40000F5
:100EC000704740F0FE4040F4400070474FF0FF0C88
:100ED0001CEAD0521EBF1CEAD15392EA0C0F93EACF
:100EE0000C0F69D0A2EB030280EA010C49024FEA21
:100EF000402037D04FF0805343EA111143EA1013DA
:100F00000CF000408B4238BF5B0042F17D024FF491
:100F1000000C8B4224BF5B1A40EA0C00B3EB510F6C
:100F200024BFA3EB510340EA5C00B3EB910F24BF55
:100F3000A3EB910340EA9C00B3EBD10F24BFA3EBDA
:100F4000D10340EADC001B0118BF5FEA1C1CE0D1A2
:100F5000FD2A3FF650AF8B4240EBC25008BF20F055
:100F6000010070470CF0004C4CEA50207F32C2BFA9
:100F7000D2F1FF0340EAC250704740F400004FF046
:100F80000003013A37E792F0000F00F0004C02BF77
:100F9000400010F4000F013AF9D040EA0C0093F041
:100FA000000F01F0004C02BF490011F4000F013B9B
:100FB000F9D041EA0C0195E70CEAD15392EA0C0F03
:100FC00008D142027FF47DAF93EA0C0F7FF470AF3B
:100FD000084676E793EA0C0F04D14B023FF44CAF7E
:100FE00008466EE730F0004C18BF31F0004CCAD113
:100FF00030F000427FF45CAF31F000437FF43CAF4F
:101000005FE700BF4FEA4002B2F1FE4F0FD34FF04F
:101010009E03B3EB12620DD94FEA002343F0004365
:1010200010F0004F23FA02F018BF404270474FF013
:101030000000704712F1610F01D1420205D110F09A
:10104000004008BF6FF0004070474FF0000070474D
:1010500042000ED2B2F1FE4F0BD34FF09E03B3EB22
:10106000126209D44FEA002343F0004323FA02F04E
:1010700070474FF00000704712F1610F01D142023A
:1010800002D14FF0FF3070474FF00000704700BFB3
:101090007BB972B90029BEBF00204FF0004106E0C5
:1010A00008BF00281CBF6FF000414FF0FF3000F078
:1010B000C1B9ADF1080C6DE904CE002909DB002BA4
:1010C0001ADB00F04DF8DDF804E0DDE9022304B09E
:1010D0007047404261EB4101002B1BDB00F040F800
:1010E000DDF804E0DDE9022304B0404261EB410198
:1010F000524263EB43037047524263EB430300F0F9
:101100002FF8DDF804E0DDE9022304B0404261EB92
:1011100041017047524263EB430300F021F8DDF8D0
:1011200004E0DDE9022304B0524263EB430370475D
:1011300053B94AB9002908BF00281CBF4FF0FF313E
:101140004FF0FF3000F076B9ADF1080C6DE904CE38
:1011500000F006F8DDF804E0DDE9022304B0704792
:101160002DE9F047089E0D4604468846002B4DD1D8
:101170008A42944668D9B2FA82F252B101FA02F375
:10118000C2F1200120FA01F10CFA02FC41EA030845
:1011900094404FEA1C41B8FBF1F71FFA8CFE01FBAB
:1011A000178807FB0EF0230C43EA084398420AD93C
:1011B0001CEB030307F1FF3580F01E81984240F2DB
:1011C0001B81023F63441B1AB3FBF1F001FB103398
:1011D00000FB0EFEA4B244EA0344A6450AD91CEB68
:1011E000040400F1FF3380F00981A64540F2068136
:1011F000644402380021A4EB0E0440EA07401EB10B
:101200000023D440C6E90043BDE8F0878B4208D9EB
:10121000002E00F0EE800021C6E900050846BDE87A
:10122000F087B3FA83F100294AD1AB4202D382425C
:1012300000F2FC80841A65EB030301209846002E1F
:10124000E2D0C6E90048DFE702B9FFDEB2FA82F277
:10125000002A40F09180A1EB0C0001214FEA1C47CD
:101260001FFA8CFEB0FBF7F307FB1300250C45EAD1
:1012700000450EFB03F0A84208D91CEB050503F15D
:10128000FF3802D2A84200F2CE8043462D1AB5FBA9
:10129000F7F007FB10550EFB00FEA4B244EA05442C
:1012A000A64508D91CEB040400F1FF3502D2A6457F
:1012B00000F2B6802846A4EB0E0440EA03409EE705
:1012C000C1F120078B4022FA07FC4CEA030C25FAF7
:1012D00007FA4FEA1C49BAFBF9F820FA07F309FBB1
:1012E00018AA8D401FFA8CFE1D4300FA01F308FB7B
:1012F0000EF02C0C44EA0A44A04202FA01F20BD987
:101300001CEB040408F1FF3A80F08880A04240F210
:101310008580A8F102086444241AB4FBF9F009FBA3
:10132000104400FB0EFEADB245EA0444A64508D9C0
:101330001CEB040400F1FF356CD2A6456AD90238D3
:10134000644440EA0840A0FB0295A4EB0E04AC42C2
:10135000C846AE4656D353D0002E69D0B3EB080230
:1013600064EB0E0422FA01F304FA07F71F43CC40A2
:10137000C6E90074002147E70CFA02FCC2F1200123
:1013800025FA01F34FEA1C4720FA01F195400D437D
:10139000B3FBF7F107FB11331FFA8CFE280C40EA70
:1013A000034001FB0EF3834204FA02F408D91CEB5C
:1013B000000001F1FF382FD283422DD90239604459
:1013C000C01AB0FBF7F307FB1300ADB245EA0045C6
:1013D00003FB0EF0A84208D91CEB050503F1FF380A
:1013E00016D2A84214D9023B6544281A43EA0141A7
:1013F00038E73146304607E72F46E4E61846F9E677
:101400004B45A9D2B9EB020865EB0C0E0138A3E7F6
:101410004346EAE7284694E74146D1E7D0467BE7D2
:101420006444023847E7023B65442FE7084606E775
:101430003146E9E6704700BF844641EA000313F0F5
:10144000030349D1403A23D30B6803604B684360E0
:101450008B688360CB68C3600B6903614B69436130
:101460008B698361CB69C3610B6A03624B6A436218
:101470008B6A8362CB6AC3620B6B03634B6B436300
:101480008B6B8363CB6BC36340304031403ADBD21C
:1014900030320BD30B6803604B6843608B6883600A
:1014A000CB68C36010301031103AF3D20C3205D340
:1014B00051F8043B40F8043B043AF9D2043208D016
:1014C000D2071CBF11F8013B00F8013B01D30B8888
:1014D00003806046704700BF082A13D38B07B1D042
:1014E00010F00303AED0C3F10403D21ADB071CBF14
:1014F00011F8013B00F8013BA4D331F8023B20F87E
:10150000023B9FE7043AD9D3013A11F8013B00F8B6
:10151000013BF9D20B7803704B7843708B78837062
:10152000604670474FEA410212F5001215D211D5FC
:101530006FF47873B3EB625212D94FEAC12343F0D0
:10154000004343EA505311F0004F23FA02F018BF52
:10155000404270474FF00000704750EA013005D11B
:1015600011F0004008BF6FF0004070474FF00000DE
:10157000704700BF08B5012009F0AEFBFBE7000093
:1015800008B50E4AD2F89431B3FA83F35B09C2F876
:1015900094310B4B18680AF08FFE0146094837F06A
:1015A000E5FF00200AF088FE0146074837F0DEFF1D
:1015B0004FF4FA7009F090FBE3E700BF000023420C
:1015C000C00A0020B4080408CC08040808B50121AA
:1015D000044800F0C7FE2FF0ADFD052009F07CFBAC
:1015E000F9E700BFE408040808B50B4A00210B48DE
:1015F00009F0FCFA0A4B18600A4A00210A4809F06F
:10160000F5FA0A4B18600A4A00210A4809F0EEFA76
:10161000094B186008BD00BF4C0904087515000887
:10162000C40A00200409040881150008BC0A00202F
:1016300028090408CD150008C00A002030B587B07D
:10164000002302930393049305931C4B1B680BB177
:1016500007B030BD194B01221A60194B5A6942F488
:1016600080725A615B6903F480730193019B4FF2AE
:101670003F030293022503950324059402A9114810
:1016800003F0E6FB41F23F4302930395059402A960
:101690000D4803F0DDFB4FF680730293039505942C
:1016A00002A90A4803F0D4FB4FF633730293039563
:1016B000059402A9064803F0CBFBC9E7C80A00203D
:1016C00000100240001C01400020014000180140B1
:1016D0000014014030B58FB00022079208920992A1
:1016E0000A920B920C920D92009201920292039236
:1016F00004920592069232484FF02043036003F5AE
:101700008273436004238360C260026110234361DB
:101710008261C261026242624FF480518162C262A0
:101720000263426382630F210891082109910B93A0
:1017300011230C9307A904F088FF002839D1214810
:101740004FF02043036003F58273436006238360F8
:101750000023C3600361102242618361C36103629D
:1017600043624FF480518162C3624FF48041016350
:10177000436383630F21079108913C2409940A93E2
:101780000B9211240C940D930925009501910821C9
:10179000029103930492059406936A4607A904F004
:1017A00054FF48B9084AD36943F48063D3610FB04A
:1017B00030BD00F059F8C2E700F056F8F2E700BF7C
:1017C000CC0A0020140B00200000014008B5FFF7F0
:1017D00035FF08BD88B0214B9A6942F010029A612A
:1017E0009A6902F010020192019A9A6942F080020D
:1017F0009A619A6902F080020292029A9A6942F012
:1018000004029A619A6902F004020392039A9A69A7
:1018100042F480729A619A6902F480720492049A86
:101820009A6942F040029A619A6902F04002059278
:10183000059A9A6942F008029A619A6902F00802D0
:101840000692069A9A6942F020029A619B6903F017
:1018500020030793079B08B0704700BF00100240A9
:1018600008B50AF0DDFA08BD72B6FEE700B591B022
:101870002822002106A837F01BFE002301930293C3
:10188000039304930593012206924FF48033079348
:101890000A9202220D920E934FF4E0130F9306A8C2
:1018A00003F012FC80B90F2301930221029100235F
:1018B00003934FF480620492059301A803F036FE6F
:1018C00020B911B05DF804FBFFF7CEFFFFF7CCFFA6
:1018D00008B503F02FF9FFF7C9FFFFF77BFFFFF70C
:1018E000F9FE00F031FA00F08FF800F025F84820FA
:1018F00002F0DEFF01F0B0FD01F080FD01F084F99F
:1019000090B9002003F030F82AF06AFD084832F060
:101910006DFD01F0BDF901F00DFA09F01FF9FFF7B7
:1019200063FE09F03DF9FEE7024837F081FEE8E783
:10193000611800087009040810B50E480E4B0360CA
:10194000002343608360C3600361436104238361B8
:1019500004F0E2FB50B9074C0849204604F0F7FBBD
:101960004FF40061204604F005FC10BDFFF77CFF3A
:10197000F1E700BF7C0B0020008001405C0B0020E1
:1019800030B589B00023049305930693079302684A
:101990001A4B9A4201D009B030BD03F510435A6981
:1019A00042F480625A615A6902F480620192019A9B
:1019B0009A6942F010029A619A6902F0100202924A
:1019C000029A9A6942F020029A619B6903F020030F
:1019D0000393039B4FF48853049302250595032436
:1019E000079404A9064803F033FA042304930595E9
:1019F000079404A9034803F02BFACCE700800140C8
:101A0000001001400014014008B50F480F4B03605F
:101A10004FF48273436000238360C360022202613B
:101A2000012242614FF4007282613822C261036276
:101A3000436283620A23C36204F08AFC00B908BDD2
:101A4000FFF712FFFBE700BF000C0020003800404A
:101A500010B586B0002302930393049305930268A4
:101A6000174B9A4201D006B010BD03F5EC33DA698A
:101A700042F48042DA61DA6902F480420092009A0C
:101A80009A6942F008029A619B6903F00803019386
:101A9000019B4FF4204302930223039303230593F6
:101AA000084C02A9204603F0D3F94FF48043029377
:101AB00000230393049302A9204603F0C9F9D2E757
:101AC00000380040000C01400B4B19680A6822F0F6
:101AD00040020A6019680A6822F038021204120CE7
:101AE0000A601A681168084310601A68136843F0A6
:101AF00040031360704700BF000C002000B587B0A2
:101B00008DF80F004FF47A73009301230DF1170243
:101B10000DF10F01034804F076FC9DF8170007B0A3
:101B20005DF804FB000C002000B583B0104B9A69EF
:101B300042F001029A619A6902F001020092009A51
:101B4000DA6942F08052DA61DB6903F08053019375
:101B5000019B00220F216FF0010003F035F8054AC8
:101B6000536823F0E063536003B05DF804FB00BFEB
:101B70000010024000000140FEE7000008B50348E5
:101B800037F056FD642002F0BBFEF8E78009040838
:101B9000FEE7FEE7FEE7704708B502F0DDFF0AF05A
:101BA00097FB012800D108BD09F0CCF9FBE7000044
:101BB00008B5084804F082FF064805F0C3F820285D
:101BC000FAD101220449034805F0DDF80028F8D1D4
:101BD00008BD00BF2C0D0020280D002001207047FB
:101BE00008B536F04DFE162303604FF0FF3008BDF8
:101BF00008B54FF0FF31FFF7F3FFFEE770B50C4675
:101C00001646002506E0AFF30080214601F8010BDF
:101C100001350C46B542F6DB304670BD4FF0FF3063
:101C200070474FF400534B6000207047012070470D
:101C30000020704710B503460C4A0D490D48006856
:101C400040B10C4800680344521A934206D8094A2E
:101C5000136010BD0748084C0460F2E736F010FE30
:101C60000C2303604FF0FF30F3E700BF00000120BA
:101C700000300000580C0020B898002082B01C4BA7
:101C80004FF48A725A615A6902F4807201924FF4D9
:101C9000F0729A619B6903F020030193019B154B3D
:101CA000154A1A604FF0BB325A6003F5806313493E
:101CB00019605A6003F5806302F109421A6001F16C
:101CC000EE6101F5DF2101F28971596003F580634E
:101CD0001A60A2F5E002A2F5E042773A5A604FF0AE
:101CE000204341F291021A61054A5A6102B07047DD
:101CF0000010024000140140BB44BB44BB4444B448
:101D00001202110008B5FFF7B9FF08BD10B582B087
:101D1000C4B28DF804400223012201A9024804F054
:101D2000E3FD204602B010BD2C0D002070B50C461E
:101D30001646002504E014F8010BFFF7E7FF013514
:101D4000B542F8DBF0B270BD08B50F480F4B036029
:101D50004FF4E13343604FF4805383600023C3604A
:101D60004FF4C06202610C2242618361C36104F0DE
:101D70008BFD28B901220649034805F004F808BD87
:101D8000FFF772FDF6E700BF2C0D00200038014080
:101D9000280D002030B587B00023029303930493ED
:101DA000059302681B4B9A4201D007B030BD03F582
:101DB00058439A6942F480429A619A6902F48042D7
:101DC0000092009A9A6942F004029A619B6903F0BA
:101DD00004030193019B4FF40073029302230393C6
:101DE000032305930C4D02A9284603F031F84FF464
:101DF0008063029300240394049402A9284603F00C
:101E000027F822460521252002F0DEFE252002F0DB
:101E100013FFCAE700380140000801400268194B6F
:101E20009A4200D07047184A1388B2F90020002A5D
:101E3000F8DB13F4804F0ED0144A12780A2A03D02C
:101E4000114B00221A8070476FEA43436FEA5343F5
:101E50000D4A138070470D4A12780D2A0DD0C3F336
:101E60000D010B48425401339BB2074A1380C72B24
:101E7000D8D9134600221A80D4E743F48043024A9B
:101E80001380704700380140240D0020280D0020E9
:101E90005C0C0020FFF736FF0B480C490C4A00236E
:101EA00002E0D458C4500433C4188C42F9D3094A10
:101EB000094C002301E013600432A242FBD336F048
:101EC000EBFFFFF705FD704700000020980A002097
:101ED000D8560708A00A0020B8980020FEE70000A6
:101EE00070B582B004462CF05DFF054620462CF00C
:101EF00057FF064620462CF05BFF0A2D01D002B0AA
:101F000070BD04460D482CF0FAFB8DF80400C0F3B8
:101F100007238DF80530C0F307408DF80600022234
:101F20000199304610F09FFA02229621304610F0B7
:101F3000ACFA012120460BF0E4FCE0E7F1A74700F2
:101F400070B5ADF52D6D04460021CDF86C180291E9
:101F500040F2FC7203A837F0ABFA20462CF028FFC1
:101F6000064620462CF01EFF054620462CF018FFA2
:101F70000A2D02D00DF52D6D70BD04464A482CF097
:101F8000BEFB8DF8CC0AC0F307238DF8CD3AC0F321
:101F900007408DF8CE0A0222DDF8CC1A204610F058
:101FA00062FA02229621204610F06FFA012231686F
:101FB0000DF5076007F050FE00284FD112F04AF8E7
:101FC00036F026FB04460DF085FF12F043F80CF0C6
:101FD000CDFD054612F03EF80CF0CDFD0246294637
:101FE00020460CF06FFD7168204636F022FB00227F
:101FF0002E490FF01FFF3C222D49204636F02EFBC4
:1020000023460A222B490CF08BFB204636F044FB7A
:1020100035F0D8FA0546002135F0C0FE0DF66C0308
:1020200063220DF608010DF5076007F086FFF8B989
:10203000DDF86C480DF6080300221A5502A837F0A7
:102040005DFC2044B0F5006F25D222460DF6080154
:1020500002A837F081FC002CE0D112E00190164B71
:102060000093164B6322164902202DF0BDFA81E73A
:102070000190144B0093114B7522114903202DF050
:10208000B3FA0022094928460FF0D4FE02A92846D7
:1020900035F026FE6EE70C4B0093084B7C22084976
:1020A00002202DF0A1FAECE7F1A74700980E0020DE
:1020B000240A0408E11E0008140A0408D00A0408CF
:1020C000AC090408280A04083C0A040870B582B068
:1020D00004462CF067FE054620462CF061FE0646BD
:1020E00020462CF065FE0A2D01D002B070BD0446DA
:1020F0000D482CF004FB8DF80400C0F307238DF885
:102100000530C0F307408DF80600022201993046E1
:1021100010F0A9F902229621304610F0B6F90121FB
:1021200020460BF074F9E0E7F1A747002DE9F041F4
:10213000D6B004460E46014642A808F0B9FB002876
:1021400040F0E1802346784A802102A837F08AFADD
:1021500000227649304636F0F3F9074635F032FA78
:102160000546032135F01AFE02A9284635F0B8FDD0
:1021700000226F4928460FF05DFE33460A226D4962
:1021800038460CF0CDFA44E003F11A08CDF800808F
:102190002346694A802122A837F064FA0022634965
:1021A000304636F0CDF9074635F00CFA05460321E6
:1021B00035F0F4FD4146284635F092FD00225C4999
:1021C00028460FF037FE11F045FF36F0A9F9054615
:1021D0000DF080FE11F03EFF0CF0C8FC804611F0BF
:1021E00039FF0CF0C8FC0246414628460CF06AFC58
:1021F000012128460BF085FB2B460A224F49384621
:102200000CF08EFA294622A8FFF790FF0546002819
:1022100059D14B4942A808F0AFFB054600287CD1B4
:10222000474A927E002A78D0454B1A7B02F014056B
:10223000102DA9D012F0040FEBD1424F0097234686
:102240003D4A802122A837F00DFA00223E4930464F
:1022500036F076F9804635F0B5F90546032135F0BC
:102260009DFD3946284635F03BFD00223049284681
:102270000FF0E0FD0821002002F020FC05460028B8
:1022800038D022A837F03AFB411C002002F016FC9F
:102290002860384637F032FB411C002002F00EFC6B
:1022A000034668602868C0B1BBB122A937F0C8FAFC
:1022B0003946686837F0C4FA2B460A22234940465B
:1022C0000CF02EFAA5E70190214B0093214BB02290
:1022D000214903202DF088F91FE00146002002F07B
:1022E000DFFB6968002002F0DBFB2946002002F0DA
:1022F000D7FB8EE7194B0093164BC92216490320D2
:102300002DF072F985E705460194154B0093114BAA
:10231000CE22114903202DF067F942A808F022FBD4
:10232000284656B0BDE8F081680A0408700A04081F
:10233000980E0020E11E0008740A0408CD20000851
:10234000780D0020920D0020A00A0408411F00080B
:102350007C0A0408E00A0408AC090408A40A04087A
:10236000BC0A0408F8B505460C461B482DF0EAFEE9
:10237000012C27D0022C2AD024B1184916482EF05F
:10238000ECF903E0164914482EF0E7F911F062FE6B
:1023900036F0C6F8134C20600DF09CFD276811F054
:1023A00059FE0CF0E3FB064611F054FE0CF0E3FB83
:1023B0000246314638460CF085FB21682846FFF777
:1023C000B5FEF8BD054904482EF0C7F9DEE7064919
:1023D00001482EF0C2F9D9E7980E0020280000200D
:1023E00004000020740D00204C00002010B5054BA7
:1023F000D3F80930044C8AB2C118204600F0B4FD6D
:10240000204610BDD8100020A40E00202DE9F04772
:1024100082B003690D690268D2F818A049F6A0726B
:10242000934200F200810C461F2B40F2FE80A3F184
:102430001E0004218000FFF7D9FF0768002F00F07D
:10244000F68006213846FFF7D1FF034600220092AE
:10245000ADF80420006800909B88ADF804309DF82A
:1024600001609DF8029009FB06F1002900F0D98077
:102470009AF8138018F0C00801D00020D8E0B81DE9
:102480008900C910FFF7B2FF07460E21304612F04F
:1024900083FB9AF8133003F01E03022B5DD0042B4C
:1024A00000F09780082B00F0B8802046C0E0FF21A4
:1024B000A95401320133964248DD13F0070305D1D8
:1024C00097F900100029F2DB4146F1E7012B13D008
:1024D000022B18D0032B1DD0042B22D0052B27D084
:1024E000062B2CD0072BE4D1397811F0010100D054
:1024F000FF21A9540137DCE7397811F0400100D001
:10250000FF21A954D5E7397811F0200100D0FF212F
:10251000A954CEE7397811F0100100D0FF21A95459
:10252000C7E7397811F0080100D0FF21A954C0E7AE
:10253000397811F0040100D0FF21A954B9E73978A6
:1025400011F0020100D0FF21A954B2E705440CF1BB
:10255000010CE145A9DD0022ADE74FF0000C634618
:10256000F7E7012B0DD0022B22D0032B11D117F846
:10257000011B01F00301DFF8C0C01CF80110A954D1
:1025800007E03978C1F30111DFF8ACC01CF8011085
:10259000A95401320133964213DD13F00303E0D155
:1025A00039788909DFF890C01CF80110A954F0E7C8
:1025B0003978C1F38101DFF880C01CF80110A954FB
:1025C000E7E705440EF1010EF1457FF76EAF0022FB
:1025D000E1E74FF0000E7346F6E717F8011B01F034
:1025E0000F01DFF858E01EF80110A9540132013341
:1025F00096420ADD13F00103EFD139780909DFF8BB
:102600003CE01EF80110A954F0E705440CF1010C60
:10261000E1457FF74AAF0022EAE74FF0000C63463E
:10262000F6E7002004E0002002E0002000E00020A7
:1026300002B0BDE8F08700BFEC0A0408F00A040805
:1026400038B549F6A0739A4227D80D4614461F2A7A
:1026500001D8002022E0A2F11E0004218000FFF733
:10266000C5FE006808B9002018E00621FFF7BEFE8D
:102670000378AB8083782B814378EB8090F903302B
:102680006B8190F90430AB810423AB732C61EB7B3D
:102690006FF30003EB73012000E0002038BD000061
:1026A00010B5054BD3F81130044C8AB2C11820463E
:1026B00000F05AFC204610BDD8100020100F00205A
:1026C0002DE9F04782B003690D690268D2F818A0BD
:1026D00049F6A072934200F200810C461F2B40F293
:1026E000FE80A3F11E0004218000FFF7D9FF0768D8
:1026F000002F00F0F68006213846FFF7D1FF034691
:1027000000220092ADF80420006800909B88ADF88C
:1027100004309DF801609DF8029009FB06F1002944
:1027200000F0D9809AF8138018F0C00801D000207A
:10273000D8E0B81D8900C910FFF7B2FF07460E2187
:10274000304612F029FA9AF8133003F01E03022BD8
:102750005DD0042B00F09780082B00F0B880204655
:10276000C0E0FF21A95401320133964248DD13F045
:10277000070305D197F900100029F2DB4146F1E784
:10278000012B13D0022B18D0032B1DD0042B22D0E9
:10279000052B27D0062B2CD0072BE4D1397811F04C
:1027A000010100D0FF21A9540137DCE7397811F08D
:1027B000400100D0FF21A954D5E7397811F020015C
:1027C00000D0FF21A954CEE7397811F0100100D0D4
:1027D000FF21A954C7E7397811F0080100D0FF2183
:1027E000A954C0E7397811F0040100D0FF21A954A1
:1027F000B9E7397811F0020100D0FF21A954B2E7FE
:1028000005440CF1010CE145A9DD0022ADE74FF0D4
:10281000000C6346F7E7012B0DD0022B22D0032BCF
:1028200011D117F8011B01F00301DFF8C0C01CF83B
:102830000110A95407E03978C1F30111DFF8ACC0E9
:102840001CF80110A95401320133964213DD13F034
:102850000303E0D139788909DFF890C01CF8011032
:10286000A954F0E73978C1F38101DFF880C01CF882
:102870000110A954E7E705440EF1010EF1457FF779
:102880006EAF0022E1E74FF0000E7346F6E717F84F
:10289000011B01F00F01DFF858E01EF80110A954E8
:1028A0000132013396420ADD13F00103EFD139788A
:1028B0000909DFF83CE01EF80110A954F0E70544CF
:1028C0000CF1010CE1457FF74AAF0022EAE74FF037
:1028D000000C6346F6E7002004E0002002E0002040
:1028E00000E0002002B0BDE8F08700BF000B040844
:1028F000040B040838B549F6A0739A4227D80D4650
:1029000014461F2A01D8002022E0A2F11E00042153
:102910008000FFF7C5FE006808B9002018E0062116
:10292000FFF7BEFE0378AB8083782B814378EB8082
:1029300090F903306B8190F90430AB810423AB73C1
:102940002C61EB7B6FF30003EB73012000E00020B0
:1029500038BD000010B5054BD3F81930044C8AB2CD
:10296000C118204600F000FB204610BDD810002002
:10297000C40F00202DE9F04782B003690D69026899
:10298000D2F818A049F6A072934200F200810C46DA
:102990001F2B40F2FE80A3F11E0004218000FFF7F0
:1029A000D9FF0768002F00F0F68006213846FFF7B0
:1029B000D1FF034600220092ADF804200068009089
:1029C0009B88ADF804309DF801609DF8029009FBEA
:1029D00006F1002900F0D9809AF8138018F0C00899
:1029E00001D00020D8E0B81D8900C910FFF7B2FF60
:1029F00007460E21304612F0CFF89AF8133003F054
:102A00001E03022B5DD0042B00F09780082B00F0F2
:102A1000B8802046C0E0FF21A9540132013396421C
:102A200048DD13F0070305D197F900100029F2DB08
:102A30004146F1E7012B13D0022B18D0032B1DD0F8
:102A4000042B22D0052B27D0062B2CD0072BE4D12A
:102A5000397811F0010100D0FF21A9540137DCE7DA
:102A6000397811F0400100D0FF21A954D5E7397819
:102A700011F0200100D0FF21A954CEE7397811F0E0
:102A8000100100D0FF21A954C7E7397811F00801DF
:102A900000D0FF21A954C0E7397811F0040100D01B
:102AA000FF21A954B9E7397811F0020100D0FF21C4
:102AB000A954B2E705440CF1010CE145A9DD00225F
:102AC000ADE74FF0000C6346F7E7012B0DD0022B6A
:102AD00022D0032B11D117F8011B01F00301DFF8FD
:102AE000C0C01CF80110A95407E03978C1F30111E6
:102AF000DFF8ACC01CF80110A95401320133964232
:102B000013DD13F00303E0D139788909DFF890C0B1
:102B10001CF80110A954F0E73978C1F38101DFF8FE
:102B200080C01CF80110A954E7E705440EF1010E1E
:102B3000F1457FF76EAF0022E1E74FF0000E7346DC
:102B4000F6E717F8011B01F00F01DFF858E01EF857
:102B50000110A9540132013396420ADD13F001033A
:102B6000EFD139780909DFF83CE01EF80110A954CB
:102B7000F0E705440CF1010CE1457FF74AAF002274
:102B8000EAE74FF0000C6346F6E7002004E000207F
:102B900002E0002000E0002002B0BDE8F08700BFA6
:102BA000140B0408180B040838B549F6A0739A42B0
:102BB00027D80D4614461F2A01D8002022E0A2F192
:102BC0001E0004218000FFF7C5FE006808B9002040
:102BD00018E00621FFF7BEFE0378AB8083782B81D7
:102BE0004378EB8090F903306B8190F90430AB812E
:102BF0000423AB732C61EB7B6FF30003EB730120B9
:102C000000E0002038BD000038B500F063F9002472
:102C1000092C0FD80134E4B20A4D29224FF40011D7
:102C2000284600F0A1F92B78552B03D0142001F091
:102C300067FEEDE7034B1B78552B01D1002038BD13
:102C40000120FCE7D810002010B582B00446094BE3
:102C50001B7823B9204610F0A7FF02B010BD8C46A8
:102C600000928B890A898988BCF8000000F00CFE6C
:102C7000F0E700BF7000002008B500F013FD012050
:102C800000F09AFC014836F0D3FC08BD280B04087C
:102C900010B582B0FFF7F0FF4FF4A0714FF4F07061
:102CA00011F042F80446064910F08EFE0022009210
:102CB0004FF416330349204610F09EFE02B010BDBB
:102CC000492C00080000006810B5064C636800201D
:102CD0009847A38E13F0800F01D1002010BD012072
:102CE000FCE700BF78000020024B9A8902601B8C31
:102CF0000B6070477800002010B50C46FFF7E4FF2A
:102D000040B90023A374074B1B682360064B1B6864
:102D1000636010BD04490348FFF7E6FF0123A37475
:102D2000F1E700BF081100200C11002008B501F0E8
:102D300063FD08BD10B5FFF7F9FF24F01BFF064C3B
:102D40002060012124F08CFF0449206824F08FFFCB
:102D5000034836F06DFC10BD04110020F92C00086A
:102D6000380B040808B500F011FA08BD10B5044688
:102D700000F066FA230A5B00DBB2603B03F0FE0062
:102D800000F0E2FA00F08CFAE0B200F0DDFA00F0B8
:102D900087FA00F055FAA12000F0D6FA00F080FA88
:102DA000002000F0FFFA044600F062FA204610BD51
:102DB00038B504460D4600F043FA230A5B00DBB247
:102DC000603B03F0FE0000F0BFFA00F069FAE0B2E9
:102DD00000F0BAFA00F064FA284600F0B5FA00F004
:102DE0005FFA00F045FA0A2001F08AFD38BDF8B517
:102DF00007460E461546002409E0E10026FA01F1D7
:102E00003819C9B280B2FFF7D3FF0134E4B2AC4243
:102E1000F3D3F8BDF8B507460E46002004460BE094
:102E20000502B81980B2001B80B2013880B2FFF7EA
:102E30009DFF28440134E4B2B442F1D3F8BD000050
:102E400010B502280FD003280FD11520084C0023FD
:102E5000C4F8B031FEF752FEFF20FEF74FFE01230B
:102E6000C4F8B03110BD3520F0E70520EEE700BF13
:102E70000080214210B5054C0023C4F8B031062073
:102E8000FEF73CFE0123C4F8B03110BD00802142A2
:102E900038B50F4D0024C5F8B0419020FEF72EFE46
:102EA0002046FEF72BFE2046FEF728FE2046FEF7C2
:102EB00025FEFF20FEF722FE0402A4B2FF20FEF74B
:102EC0001DFE80B20123C5F8B031204338BD00BFDC
:102ED0000080214210B586B01E4B9A6942F008026C
:102EE0009A619B6903F008030193019B4FF480539F
:102EF00002930124039404940323059302A9164822
:102F000001F0A6FF154BC3F8B041FEF77DFD002090
:102F1000FEF7DAFDFFF7BCFF0146114C2080114897
:102F200036F024FB22884EF618739A4201D006B080
:102F300010BD0320FFF784FF10F0010FF7D1074CFD
:102F40000023C4F8B031B720FEF7D8FD0123C4F840
:102F5000B031ECE700100240000C0140008021423B
:102F6000720000204C0B040870B506460C4615464E
:102F7000154B0022C3F8B0210320FEF7BFFD134B11
:102F80001A884EF618739A420CD0C4F30740FEF725
:102F9000B5FDC4F30720FEF7B1FDE0B2FEF7AEFDCC
:102FA000002409E0200EFEF7A9FDEEE7FF20FEF762
:102FB000A5FD30550134A4B2AC42F7D3024B012237
:102FC000C3F8B02170BD00BF008021427200002014
:102FD00008B50120FFF734FF10F0010FF9D108BD4B
:102FE00070B506460C461546FFF744FF154B002208
:102FF000C3F8B0210220FEF781FD134B1A884EF66C
:1030000018739A420CD0C4F30740FEF777FDC4F35F
:103010000720FEF773FDE0B2FEF770FD002408E024
:10302000200EFEF76BFDEEE7305DFEF767FD013425
:10303000A4B2AC42F8D3034B0122C3F8B021FFF78E
:10304000C7FF70BD0080214272000020F8B507461E
:103050000E461446CDB2C5F58075ADB2954203D388
:10306000154601E04FF480752A4631463846FFF791
:10307000B7FFAC4208D02F442E44641BA4B2B4F571
:10308000807FEFD82546EFE7F8BD000010B50403B8
:10309000FFF7F0FEFFF79CFF114B0022C3F8B021B1
:1030A0002020FEF72BFD0F4B1A884EF618739A421C
:1030B00012D0C4F30740FEF721FD200A00F0F00013
:1030C000FEF71CFD0020FEF719FD054B0122C3F899
:1030D000B021FFF77DFF10BD200EFEF70FFDE8E7E2
:1030E00000802142720000202DE9F0470646894603
:1030F00017464FEA1138C1F30B05C5F58054A4B249
:10310000944204D3144602E04FF4805400254FEA61
:10311000083A4FF4805251461B48FFF725FF002321
:103120009C4207D9EA181849525CFF2A02D10133A0
:103130009BB2F5E79C4211D8224649463046FFF73C
:1031400085FFA7421ED008F101082644A1443F1B79
:10315000BFB2B7F5805FD7D83C46D7E74046FFF708
:1031600095FF002305E05919F05C074A88540133A4
:103170009BB29C42F7D84FF4805251460248FFF769
:1031800065FFDEE7BDE8F0871011002030B587B09D
:10319000154B9A6942F008029A619A6902F0080296
:1031A0000092009A9A6942F008029A619B6903F0C2
:1031B00008030193019B4023029301240394049488
:1031C00003230593094D02A9284601F041FE8023FF
:1031D000029302A9284601F03BFE054BC3F89C412F
:1031E000C3F8984107B030BD00100240000C014008
:1031F0000080214200B585B0802300930123019314
:103200000293032303936946024801F021FE05B0AF
:103210005DF804FB000C014000B585B080230093ED
:103220000023019301230293032303936946034878
:1032300001F00EFE05B05DF804FB00BF000C01407C
:1032400038B5FFF7D7FF094C0123C4F89C31C4F807
:103250009831052001F036FB0025C4F89C5106206A
:1032600001F030FBC4F8985138BD00BF0080214206
:1032700038B5FFF7BFFF094C0023C4F89831C4F8F4
:103280009C310125C4F89851062001F01BFBC4F8BD
:103290009C51062001F016FB38BD00BF0080214282
:1032A00038B5FFF7B9FF0F4D0124C5F89C41204602
:1032B00001F008FBC5F89841204601F003FB00230C
:1032C000084AD2F81C213AB10133DBB2FA2BF7D904
:1032D000FFF7CEFF012003E00020024BC3F8980166
:1032E00038BD00BF0080214238B50A4C0025C4F823
:1032F0009851FFF77FFFC4F89C51022001F0E2FAD9
:103300000123C4F89831052001F0DCFAC4F8985183
:1033100038BD00BF0080214270B50A4C0025C4F8BA
:103320009851FFF767FF0126C4F89C61022001F065
:10333000C9FAC4F89861052001F0C4FAC4F898519C
:1033400070BD00BF0080214270B50646FFF752FFF6
:103350000024134BC3F8984117E0114B0022C3F827
:103360009C217600F6B2022001F0ACFA0C4D01234C
:10337000C5F89831022001F0A5FA0023C5F898316C
:10338000022001F09FFA0134E4B2072C07D816F0AE
:10339000800FE2D0024B0122C3F89C21E1E770BD0F
:1033A00000802142F8B50746FFF736FF0024254686
:1033B00004E0012001F086FA0135EDB2072D12D8A4
:1033C0000D4E0023C6F89831022001F07BFA01234C
:1033D000C6F898319C40E4B2D6F81C31002BE8D0F6
:1033E0000134E4B2E5E71FB9FFF796FF2046F8BDC8
:1033F000FFF77AFFFAE700BF0080214210B586B0E0
:10340000124B9A6942F004029A619A6902F004022E
:103410000092009A9A6942F040029A619B6903F017
:1034200040030193019B1C23029300230393012477
:10343000049402A9064801F00BFD029402230493B0
:1034400002A9044801F004FD06B010BD00100240BE
:103450000018014000080140F0B587B0184B9A6988
:1034600042F008029A619A6902F008020092009AFA
:103470009A6942F040029A619B6903F0400301930C
:10348000019B2024029401250395049503230593B1
:103490000C4F02A9384601F0DBFC02940A4E02A947
:1034A000304601F0D5FC2A462146384601F0F0FDB1
:1034B0002A462146304601F0EBFD07B0F0BD00BFC3
:1034C00000100240000C01400018014008B5FEF752
:1034D00033FA002008BD000008B5034802F0AAFE38
:1034E000043818BF012008BD7C0B0020F0B583B064
:1034F00005460E46174601F0F3FA0C4C00943B4685
:10350000324629460A4802F031FA054600E01C46D8
:10351000FFF7E2FF20B1631E002CF8D10125F6E78A
:1035200001F0E0FA284603B0F0BD00BF00E1F50568
:103530007C0B0020F0B583B005460E46174601F01F
:10354000CFFA0C4C00943B46324629460A4802F01A
:1035500031FB054600E01C46FFF7BEFF20B1631EAD
:10356000002CF8D10125F6E701F0BCFA284603B09B
:10357000F0BD00BF00E1F5057C0B0020014BA3F876
:10358000FE0070470007006C014BA3F80001704774
:103590000007006C10B50C46FFF7F0FF2046FFF760
:1035A000F3FF10BD034B020AA3F80021C0B2A3F839
:1035B000000170470007006C08B5134B987158B9AB
:1035C00008213620FFF7E6FF0F4B4FF4F0725A80C8
:1035D0004FF4A0721A8008BD28213620FFF7DAFFC9
:1035E000B620FFF7CBFF0020FFF7CEFF0220FFF74A
:1035F000CBFF3B20FFF7C8FF034B4FF4A0725A806C
:103600004FF4F0721A80E6E714210020F8B507465F
:103610000D4616461C462A20FFF7B0FF380AFFF772
:10362000B3FFF8B2FFF7B0FF300AFFF7ADFFF0B21B
:10363000FFF7AAFF2B20FFF7A1FF280AFFF7A4FF3F
:10364000E8B2FFF7A1FF200AFFF79EFFE0B2FFF705
:103650009BFF2C20FFF792FFF8BD000070B50546D8
:103660000F4B1A885B88013B013A9BB292B2002152
:103670000846FFF7CBFF00260AE02846FFF792FF37
:103680000134A4B2064B5B88A342F6D80136B6B229
:10369000034B1B88B34201D90024F3E770BD00BF80
:1036A0001421002038B5322001F02AF9DA20FFF782
:1036B00065FF724DB5F80031714CA3801B02A380E9
:1036C000DB20FFF75BFFB5F80011A388194389B22F
:1036D000A180B5F800311943A1806A4835F046FF52
:1036E000E020FFF74BFF0020FFF74EFF1320FFF70E
:1036F0004BFF1820FFF748FF0420FFF745FF0F207E
:10370000FFF742FF0620FFF73FFF3A20FFF73CFF9D
:103710005620FFF739FF4D20FFF736FF0320FFF754
:1037200033FF0A20FFF730FF0620FFF72DFF302080
:10373000FFF72AFF3E20FFF727FF0F20FFF724FFA8
:10374000E120FFF71BFF0020FFF71EFF1320FFF70C
:103750001BFF1820FFF718FF0120FFF715FF1120AE
:10376000FFF712FF0620FFF70FFF3820FFF70CFFCF
:103770003420FFF709FF4D20FFF706FF0620FFF773
:1037800003FF0D20FFF700FF0B20FFF7FDFE3120A8
:10379000FFF7FAFE3720FFF7F7FE0F20FFF7F4FEE2
:1037A000C020FFF7EBFE1820FFF7EEFE1720FFF713
:1037B000EBFEC120FFF7E2FE4120FFF7E5FEC5204A
:1037C000FFF7DCFE0020FFF7DFFE1A20FFF7DCFE2C
:1037D0008020FFF7D9FE3620FFF7D0FE0820FFF744
:1037E000D3FE3A20FFF7CAFE5520FFF7CDFEB020EA
:1037F000FFF7C4FE0020FFF7C7FEB120FFF7BEFEB3
:10380000A020FFF7C1FEB420FFF7B8FE0220FFF7AB
:10381000BBFEB620FFF7B2FE0020FFF7B5FE222068
:10382000FFF7B2FE3B20FFF7AFFEE920FFF7A6FE51
:103830000020FFF7A9FEF720FFF7A0FEA920FFF761
:10384000A3FE5120FFF7A0FE2C20FFF79DFE822053
:10385000FFF79AFE1120FFF791FE782001F050F853
:103860002920FFF78BFE2C20FFF788FE0120FFF7B1
:10387000A3FE4FF6FF70FFF7F1FE38BD0007006CA6
:1038800014210020600B04082DE9F041069F151A51
:10389000ADB20135ADB2A3EB01081FFA88F808F10B
:1038A00001081FFA88F8FFF7B1FE00260BE005FBC0
:1038B000064337F81300FFF775FE0134A4B2AC429B
:1038C000F5D30136B6B2464501D20024F7E7BDE88C
:1038D000F081000008B502460B46FFF797FE024B49
:1038E0001888FFF75FFE08BD1021002010B50B46B9
:1038F00014460246FFF78AFE2046FFF753FE10BD2E
:103900002DE9F04F83B08046A2EB000A8946A3EB75
:10391000010BBAF1000F0DDD01220092BBF1000F87
:1039200014DD01230193DA451CDD564600252F46A0
:103930002C461BE0BAF1000F05D0A0EB020A4FF0B5
:10394000FF320092EAE7CDF800A0E7E7BBF1000FF5
:1039500005D0A1EB030B4FF0FF330193E3E7CDF864
:1039600004B0E0E75E46E1E70134A4B2731C9C4278
:1039700012DC1FFA89F11FFA88F0FFF7ABFF5744FA
:103980005D44BE4202DABF1B009B9844AE42EBDAB4
:10399000AD1B019B9944E7E703B0BDE8F08F2DE92B
:1039A000F04F85B080460F4600925300C3F10303E9
:1039B0000193002608E0009AB31A9B000A3301998C
:1039C00019440191531E0093009B9E4247DCB5B2FF
:1039D00005EB080B1FFA8BFBBDF800403B1B9BB2AD
:1039E000029319465846FFF775FF04EB080A1FFAC1
:1039F0008AFA7B1B9AB2039211465046FFF76AFF80
:103A000005EB07091FFA89F949465046FFF762FF9F
:103A100004EB070A1FFA8AFA51465846FFF75AFF85
:103A2000A8EB0505ADB251462846FFF753FFA8EBBA
:103A30000404A4B249462046FFF74CFF02992846E9
:103A4000FFF748FF03992046FFF744FF0136019A2C
:103A5000002AB0DAB30006331A440192B4E705B085
:103A6000BDE8F08F2DE9F04F83B0824688461F46AF
:103A70009DF830B013F0070318BF012303EBD70301
:103A8000790801FB03F3DBB20093203AD3B2019330
:103A900044464FF000093FE0019B03EB4303294AF2
:103AA00002EB830313F8095047E0274B019A03EB1D
:103AB000021313F8095040E0244B1A88214650465F
:103AC000FFF714FF6D00EDB20134A4B2204B5B8808
:103AD000A34234D9A4EB0803BB4210D00136F6B29E
:103AE000072E15D815F0800FE6D1BBF1000FE9D1F4
:103AF000184B1A8821465046FFF7F8FEE2E70AF114
:103B0000010A1FFA8AFA124B1B88534517D94446FB
:103B100009F101095FFA89F9009B99450FD20C2F31
:103B2000BAD0102FC1D0182F09D1019B03EBC303CA
:103B3000094A02EB830313F809500026D0E703B0CB
:103B4000BDE8F08F700B0408E40F0408102100207A
:103B50001421002074000020D4150408024601201E
:103B600002E002FB00F019464B1EDBB20029F8D13F
:103B7000704700002DE9F04782B0824689469046A2
:103B80001D469DF8286000273C4619E0700800FBA0
:103B900004A00023009333462022494680B2FFF759
:103BA00061FF0BE07008303200FB04A0002300939B
:103BB0003346D2B2494680B2FFF754FF0134E4B233
:103BC000AC421CD2291BC9B20139C9B20A20FFF785
:103BD000C5FFB8FBF0F00B4AA2FB003C4FEADC0C3F
:103BE0000CEB8C0CA0EB4C0C5FFA8CF2002FD9D1B3
:103BF0006B1E9C42D6DA002AC8D00127D2E702B059
:103C0000BDE8F087CDCCCCCC2DE9F04782B0824620
:103C10000D469DF828700B9E02441FFA82F90B4452
:103C20001FFA83F804460CE0454517D200230093A1
:103C30003B4629462046FFF715FF04EB5704A4B284
:103C400001363278A2F12003DBB25E2B06D84C4558
:103C5000EAD35FFA8AF43D44ADB2E5E702B0BDE8CD
:103C6000F087000070B50446002511E00E4B0022DD
:103C7000C3F8A4216400E4B20C4E0023C6F88431DA
:103C8000012000F01FFE0123C6F884311D44EDB26F
:103C9000072D07D814F0800FE8D0034B0122C3F89A
:103CA000A421E7E770BD00BF0080234200802142CD
:103CB00070B51C4C0025C4F884511B4BC3F8A451AB
:103CC000C3F8AC51FFF7CEFF062000F0FBFDC4F8AF
:103CD0008451012000F0F6FD0120C4F8840100F0B9
:103CE000F1FDC4F884512C4601E00135EDB20F2DF1
:103CF00012D86400A4B20B4E0023C6F88431012010
:103D000000F0E0FD0123C6F88431D6F80831002B1D
:103D1000EBD00134A4B2E8E7034B0122C3F8AC2195
:103D2000200970BD008021420080234230B595B04B
:103D30000546002409E02846FFF7BAFF14AB03EB61
:103D4000440323F8500C0134A4B2272CF3D90020EB
:103D50001AE001339BB2272B15D814AA02EB4002BC
:103D600032F8502C14A901EB430131F8501C8A425F
:103D7000EFD914AD05EB400C2CF8501C05EB4301BA
:103D800021F8502CE5E72046262803D8441CA4B28D
:103D90002346E0E700220123262B08D814A901EBD3
:103DA000430131F8501C0A4401339BB2F4E7520836
:103DB0000348A0FB0230C0F3CF0015B030BD00BFF8
:103DC000F31ACA6B70B505460C46064B1878FFF718
:103DD000ADFF0646044B1878FFF7A8FF2E80208021
:103DE000012070BD760000207700002030B583B040
:103DF00005460C4601A90DF10600FFF7E3FF08B9DF
:103E000003B030BD69460DF10200FFF7DBFF00286B
:103E1000F6D0BDF80230BDF80620934203D803F176
:103E20003101914205DA93421ED302F131019942E8
:103E30001CDBBDF80000BDF80410884203D800F177
:103E4000310C8C4504DA884212D33131814211DBC6
:103E500013445B102B80BDF80430BDF800201344E0
:103E60005B1023800120CBE70020C9E70020C7E7D3
:103E70000020C5E70020C3E738B52F4BD3F8283121
:103E8000002B45D1B0B12D4800F120010C30FFF7D7
:103E9000ADFF2A4B9B8E13F0800F06D1274BC0221B
:103EA0009A869A899A821A8C1A85244B988E00F0E9
:103EB000800038BD214800F120010C30FFF796FF4B
:103EC0000028E6D01D4CA56BA089FCF7F7FE29461B
:103ED000FCF748FF0546B4F94000FCF7EFFE294621
:103EE000FCF738FEFDF7B4F8A081E56B208CFCF7F9
:103EF000E5FE2946FCF736FF0546B4F94200FCF71B
:103F0000DDFE2946FCF726FEFDF7A2F82084C0E777
:103F10000A4B9B8E13F0800F04D023F08003074AD6
:103F20009386C2E7054B00229A821A854FF6FF72EC
:103F30009A811A84B9E700BF0080234278000020EC
:103F40002DE9F04104460D461A4B1A8000F10D028E
:103F50000C380B4692B280B2FFF7D2FC05F10D038C
:103F6000A5F10C019BB2224689B22046FFF7C8FC9E
:103F700004F101081FFA88F86F1CBFB239464046A9
:103F8000FFF7A8FC661EB6B239463046FFF7A2FC22
:103F90006F1EBFB239464046FFF79CFC394630469B
:103FA000FFF798FC062229462046FFF7F8FCBDE8FB
:103FB000F08100BF1021002010B5164C1649A06BEF
:103FC000FCF7D0FEFDF71EF801460422C820FEF7DC
:103FD0000EFF1149E06BFCF7C5FEFDF713F8014633
:103FE0000422CC20FEF703FF0222B4F94010D020B7
:103FF000FEF7FDFE0222B4F94210D220FEF7F7FED2
:1040000094F84410D420FEF7D3FE0A21D520FEF701
:10401000CFFE10BD7800002020BCBE4C10B5D520CE
:10402000FEF7A4FE0A2801D0002010BD0421C820FC
:10403000FEF7F0FEFCF742FE1749FCF747FF174C6E
:10404000A0630421CC20FEF7E5FEFCF737FE124901
:10405000FCF73CFFE0630221D020FEF7DBFEA4F872
:1040600040000221D220FEF7D5FEA4F84200D42061
:10407000FEF77CFE84F8440038B1094B90221A7098
:10408000084BD0221A700120CFE7054BD0221A70BE
:10409000044B90221A70F6E720BCBE4C780000203A
:1040A00076000020770000202DE9F04383B08146A0
:1040B000884617461E464F4B4FF478421A804E4DA5
:1040C0004E4B0193102400946B882A88A02128204D
:1040D000FFF79AFD4A4B019300946B882A88A02130
:1040E0007820FFF791FD474B019300946B882A8855
:1040F000B4212820FFF788FD434B019300946B887F
:104100002A88B4217820FFF77FFD404B019300946B
:104110006B882A88C8212820FFF776FD3C4B019345
:1041200000946B882A88C8217820FFF76DFD394BF1
:10413000019300946B882A88DC212820FFF764FD16
:10414000354B019300946B882A88DC217820FFF797
:104150005BFD324B019300946B882A88F021282064
:10416000FFF752FD009404234A46A0214020FFF7A8
:1041700001FD009404234246A0219020FFF7FAFCA1
:10418000009404233A46B4214020FFF7F3FC009446
:1041900004233246B4219020FFF7ECFC0094042362
:1041A000BDF82820C8214020FFF7E4FC0094042338
:1041B000BDF82C20C8219020FFF7DCFC00940423DC
:1041C000BDF83020DC214020FFF7D4FC009404230C
:1041D000BDF83420DC219020FFF7CCFC00940323B1
:1041E000BDF83820F0216020FFF7C4FC03B0BDE823
:1041F000F08300BF10210020142100203023040888
:1042000034230408382304083C230408402304080A
:1042100044230408482304084C23040850230408BA
:104220002DE9F04F8FB08E4C1F2323804FF6FF7582
:104230008C4B1D802846FFF711FA4FF478462680F4
:104240002846FFF70BFA00252580874B01931023A2
:1042500000936423A02228210846FFF7D5FC3246AC
:1042600014210846FFF76CFE804B9D8600229A635E
:104270002C4618E04FF6FF7214210846FFF760FE47
:104280007B4B188814384FF47842142180B2FFF722
:1042900057FE00240A2000F033FB0134A4B2B4F529
:1042A0007A7F00F28982714E736801209847B38E3D
:1042B00003F0C002402AEDD123F04003B386B18958
:1042C0000EAB03EB850323F8101C328C23F80E2C65
:1042D0000135EDB26B1E032B00F26C8201A252F885
:1042E00023F000BF75420008F54200081B43000898
:1042F000454300085E4C208814384FF6FF721421A5
:1043000080B2FFF71DFE618814394FF4784289B2FC
:104310001420FFF715FE0024BCE7554C61881439C2
:104320004FF6FF7289B21420FFF70AFE20886188D9
:10433000143914384FF4784289B280B2FFF700FE86
:104340000024A7E7BDF828A0BDF82C90AAEB09002F
:104350000028B8BF4042BDF82A80BDF82EB0A8EBB7
:104360000B03002BB8BF5B4203FB03F300FB0030E1
:10437000FCF7A0F834F096F9FCF7C6FB84B2BDF860
:104380003060BDF834300893F01A0028B8BF4042BE
:10439000BDF83270BDF836300993FB1A002BB8BF58
:1043A0005B4203FB03F300FB0030FCF783F834F0BF
:1043B00079F9FCF7A9FB85B22046FCF77BFC069057
:1043C0002846FCF77BFC01460698FCF77FFDFCF7CE
:1043D00093F802460B46CDE906231DA3D3E900233B
:1043E000FCF754FB50B91CA3D3E90023DDE9060117
:1043F000FCF76AFB10B90CB1002D3DD11C4B18889D
:104400005988143914384FF6FF7289B280B2FFF719
:1044100097FD4FF4784214210846FFF791FD0022E2
:10442000144BDDE90601FCF7BFF8FCF76DFB80B229
:104430000490099B0393089B0293019700965B46A7
:104440004A4641465046FFF72FFE002425462AE7FC
:10445000666666666666EE3FCDCCCCCCCCCCF03FD3
:104460001021002074000020582304087800002048
:104470001421002000005940AAEB06000028B8BF14
:104480004042A8EB0703002BB8BF5B4203FB03F3DA
:1044900000FB0030FCF70EF834F004F9FCF734FBB5
:1044A00084B2089BA9EB03000028B8BF4042099BD7
:1044B000ABEB0303002BB8BF5B4203FB03F300FB32
:1044C0000030FBF7F7FF34F0EDF8FCF71DFB85B289
:1044D0002046FCF7EFFB04462846FCF7EFFB0146BD
:1044E0002046FCF7F3FCFCF707F804460D46B6A39C
:1044F000D3E90023FCF7CAFA38B9B5A3D3E90023FE
:1045000020462946FCF7E0FA48B3B34B188859888F
:10451000143914384FF6FF7289B280B2FFF710FDDC
:104520004FF4784214210846FFF70AFD0022AB4BF6
:1045300020462946FCF738F8FCF7E6FA80B20490EA
:10454000099B0393089B0293019700965B464A469A
:1045500041465046FFF7A8FD00242546A3E6A9EBF7
:1045600006000028B8BF4042ABEB0703002BB8BFE2
:104570005B4203FB03F300FB0030FBF79BFF34F0CF
:1045800091F8FCF7C1FA84B2089BAAEB030000285B
:10459000B8BF4042099BA8EB0303002BB8BF5B42A6
:1045A00003FB03F300FB0030FBF784FF34F07AF8E1
:1045B000FCF7AAFA85B22046FCF77CFB04462846A5
:1045C000FCF77CFB01462046FCF780FCFBF794FFE0
:1045D00004460D467CA3D3E90023FCF757FA0028D4
:1045E00040F09A807AA3D3E9002320462946FCF7BD
:1045F0006BFA002840F09080774DB5F800B0ABF131
:104600002800FCF75BFB0446A9EB0A00FCF756FB0D
:1046100001462046FCF75AFC0446714EB0630AEB93
:104620000900FCF74BFB2146FCF79CFB81465846F2
:10463000FCF744FB4946FCF78BFA4FF07C51FCF742
:1046400091FBFCF7DFFCA6F84000B5F80290A9F159
:104650002800FCF733FB0546A7EB0800FCF72EFB10
:1046600001462846FCF732FC0546F06308EB0700DC
:10467000FCF724FB2946FCF775FB07464846FCF788
:104680001DFB3946FCF764FA4FF07C51FCF76AFBDE
:10469000FCF7B8FCA6F842002046FCF7B3FC80EA21
:1046A000E073A3EBE073022B08DC2846FCF7AAFCBE
:1046B00080EAE073A3EBE073022B5EDDA9F1140145
:1046C000ABF114004FF6FF7289B280B2FFF738FCED
:1046D0004FF4784214210846FFF732FC3E4A414B22
:1046E000019310230093538812881A212820FFF782
:1046F0008BFA3B4A92F84430B3FA83F35B0982F8B1
:104700004430002B32D0384B90221A70374BD022D5
:104710001A7000242546C6E52F4B1888598814398D
:1047200014384FF6FF7289B280B2FFF709FC4FF4DC
:10473000784214210846FFF703FC0022274B20464D
:104740002946FBF731FFFCF7DFF980B20490099BA3
:104750000393089B0293019700965B464A464146A5
:104760005046FFF7A1FC002425469CE51E4BD022B5
:104770001A701E4B90221A70CBE71D4B1F221A8015
:104780004FF6FF70FEF76AFF134A1A4B019310238E
:104790000093538812886E212320FFF735FA4FF4D7
:1047A0007A7000F0ADF8FFF707FC4FF6FF70FEF7E8
:1047B00055FF03E000246DE5FFF730FC0FB0BDE8C6
:1047C000F08F00BFAFF30080666666666666EE3FF8
:1047D000CDCCCCCCCCCCF03F1421002000005940F3
:1047E00078000020D4230408760000207700002001
:1047F00010210020E823040870B586B0294B9A697F
:1048000042F008029A619A6902F008020092009A46
:104810009A6942F080029A619B6903F080030193D8
:10482000019B022302930124039404940323059320
:104830001D4D02A9284600F00BFB0423029300261D
:10484000039602A9284600F003FB4FF4206302936D
:10485000039405F5805502A9284600F0F9FA4FF4B3
:10486000806302930396049402A9284600F0F0FAAC
:104870000E4800F120010C30FFF7A4FAFEF772FA9F
:10488000FFF7CCFB10B1002006B070BD4FF6FF70F3
:10489000FEF7E4FEFFF7C4FCFFF78EFBFFF7BEFB5D
:1048A0002046F1E700100240000C01407800002093
:1048B00010B50446042000F0E1F9014B1C6010BD66
:1048C0001C21002010B44FF0E02254690B4B1B68F0
:1048D00000FB03FC9369002104E0E01A0244114448
:1048E000614509D21A464FF0E0239B699A42FAD0FB
:1048F000F3D9D21A1144F3E710BC70471C210020F1
:1049000038B50546002404E04FF47A70FFF7DAFF6B
:104910000134A542F8D838BD00239C4600E001339D
:104920000B4A52F820209A420AD9021D094951F82F
:10493000222032F81320002AF1D00CF1010CEEE70E
:10494000642000FB0CF0B0FBF2F0C0B2704700BF77
:1049500010240408C000002002E000F8011B1A46E1
:10496000531E002AF9D1704738B504460B4D031D7C
:104970000B4A52F820205200002155F82300FFF77F
:10498000EBFFA31C074A52F82420002155F823000E
:10499000FFF7E2FF2C440123237638BDC00000203E
:1049A000102404080824040870B504460E461F4B62
:1049B00003441B7E13B91D4B1B68984796B31C4BD1
:1049C00053F82450B6FBF5FC05FB1C660EB10CF148
:1049D000010C184B53F82430013B002103E0002167
:1049E0008C451AD0013B002B19DB221D0F4850F8D3
:1049F0002220184632F81320002AF0D10131EFE7C7
:104A0000221D0A4951F82220C11822F811C0013391
:104A10009C45F5D805FB00F003E00023F8E74FF0D4
:104A2000FF3070BD4FF0FF30FBE700BFC00000203B
:104A3000002404081024040838B5164B03441B7ED8
:104A40008BB1154B53F820308B4220D9134B53F8C0
:104A50002030B1FBF3F1031D0E4A52F8233033F836
:104A6000115000230FE00B4B1B68984701200DE00D
:104A7000021D084C54F8222003EB010C4FF0000EED
:104A800022F81CE00133AB42F2DB002038BD0220EB
:104A9000FCE700BFC000002008240408002404082C
:104AA00049B108B50B46811C034A52F82110591A26
:104AB000FFF7C2FF08BD7047C000002010B50446D4
:104AC000FFF772FFB0F1FF3F05D00234034B53F8FC
:104AD0002430184410BD0020FCE700BFC0000020B7
:104AE00072B6704762B6704710B504460E4B187820
:104AF0004FF47A73B3FBF0F30C4A1068B0FBF3F099
:104B000000F0A8F868B90F2C01D901200AE00022B2
:104B100021464FF0FF3000F057F8054B1C60002095
:104B200000E0012010BD00BFDC00002000000020DC
:104B3000E000002008B5074A136843F01003136033
:104B4000032000F02FF80F20FFF7CEFFFCF7ECFF5B
:104B5000002008BD00200240034A1168034B1B7867
:104B60000B441360704700BFE0600020DC000020B1
:104B7000014B1868704700BFE060002038B504465C
:104B8000FFF7F6FF0546B4F1FF3F02D0044B1B7858
:104B90001C44FFF7EDFF401BA042FAD338BD00BF15
:104BA000DC000020074AD36823F4E0631B041B0CDD
:104BB000000200F4E060034343F0BF6343F40033BA
:104BC000D360704700ED00E000B5194BDB68C3F31C
:104BD0000223C3F1070CBCF1040F28BF4FF0040CF3
:104BE00003F1040EBEF1060F18D9033B4FF0FF3E50
:104BF0000EFA0CFC21EA0C0199400EFA03F322EAAA
:104C00000303194300280BDB0901C9B200F160401E
:104C100000F5614080F800135DF804FB0023E5E730
:104C200000F00F000901C9B2024B1954F4E700BFAC
:104C300000ED00E014ED00E0002807DB00F01F02AB
:104C4000400901239340024A42F82030704700BFD8
:104C500000E100E00138B0F1807F0BD24FF0E0239B
:104C60005861054AF02182F823100020986107223C
:104C70001A6170470120704700ED00E0042806D05B
:104C80004FF0E022136923F00403136170474FF0E3
:104C9000E022136943F004031361704790F8213058
:104CA000DBB2022B06D004238363002380F820307C
:104CB000012070470268136823F00E031360026836
:104CC000136823F001031360036CC16B012202FA25
:104CD00003F34B6080F82120002380F82030184631
:104CE0007047000008B590F82130DBB2022B03D0EA
:104CF00004238363012008BD0268136823F00E03B8
:104D000013600268136823F00103136003684C4AC0
:104D100093424ED9783A934224D01432934230D001
:104D2000143293422FD0143293422FD01432934234
:104D30002FD0143293422FD0143293422FD002F549
:104D4000627293422ED0143293422DD01432934289
:104D50002CD01432934202D04FF4803203E04FF44F
:104D6000805200E00122374B5A60012380F8213045
:104D7000002380F82030436B002B5ED09847002042
:104D8000B9E71022EFE74FF48072ECE74FF480525E
:104D9000E9E74FF48032E6E74FF48012E3E74FF0A3
:104DA0008072E0E70122DEE71022DCE74FF4807238
:104DB000D9E7254A934224D01432934225D01432A5
:104DC000934224D01432934224D01432934224D0FC
:104DD0001432934224D01432934224D002F56272EA
:104DE000934223D01432934222D01432934221D0E2
:104DF0001432934202D04FF4803203E04FF48052D9
:104E000000E00122114B5A60AFE71022FAE74FF49D
:104E10008072F7E74FF48052F4E74FF48032F1E705
:104E20004FF48012EEE74FF08072EBE70122E9E7E2
:104E30001022E7E74FF48072E4E700205BE700BF51
:104E400080000240000402400800024000000240CE
:104E500070B582B00024A446B0E0874DAA4210D0BD
:104E600007D9864DAA420CD005F58035AA4208D054
:104E700013E0A5F58015AA4203D005F57025AA42D6
:104E800007D18A68002A62D0012A5BD043610824D6
:104E900003E0A5F58015AA42F3D0BEF1FF0F58D864
:104EA0000646BEF1FF0F56D84FEA8C0233680F2535
:104EB000954023EA050304FA02F2134333604B687A
:104EC00013F0805F78D06E4B9A6942F001029A61CC
:104ED0009B6903F001030193019B4FEA9C02951C1F
:104EE000684B53F825600CF003039D000F23AB4083
:104EF00026EA0306644B984233D003F58063984258
:104F000000F0988003F58063984200F0958003F5E7
:104F10008063984200F0928003F58063984200F02D
:104F20008F8003F58063984219D006231AE0CC687D
:104F3000B3E7CC680434B0E7CC680834ADE7CC689C
:104F40000C34AAE703610824A7E70024A5E704249A
:104F5000A3E7061DA5E7ACF108029200A6E705232A
:104F600000E00023AB4033430232464D45F8223087
:104F70004B6813F4801F65D0444A936843EA0E03DC
:104F800093604B6813F4001F62D0404AD36843EA31
:104F90000E03D3604B6813F4003F5FD03B4A536865
:104FA00043EA0E0353604B6813F4803F5CD0374AEA
:104FB000136843EA0E0313600CF1010C0A6832FA1D
:104FC0000CF357D0012303FA0CF302EA030E33EA81
:104FD0000202F1D14A68122A3FF63FAF122A3FF689
:104FE0005CAF01A555F822F0834E00082F4F000852
:104FF000394F00084B4F00089B4E00089B4E00089D
:105000009B4E00089B4E00089B4E00089B4E0008DC
:105010009B4E00089B4E00089B4E00089B4E0008CC
:105020009B4E00089B4E00089B4E0008334F000823
:105030003F4F0008012395E7022393E7032391E7FD
:1050400004238FE7114A936823EA0E03936098E7DD
:105050000E4AD36823EA0E03D3609BE70B4A5368DA
:1050600023EA0E0353609EE7084A136823EA0E03FF
:105070001360A1E702B070BD0000221000003110E3
:1050800000100240000001400008014000040140FF
:105090000AB10161704709040161704782B0084B91
:1050A0001B68084AA2FB03235B0A00FB03F301937E
:1050B00000BF019B5A1E0192002BF9D102B070472C
:1050C00000000020D34D6210002800F0F18170B57F
:1050D00082B00446036813F0010F2CD0994B5B6833
:1050E00003F00C03042B1DD0964B5B6803F00C03FC
:1050F000082B12D06368B3F5803F41D0002B55D107
:1051000003F1804303F504331A6822F480321A60F5
:105110001A6822F480221A6037E08A4B5B6813F425
:10512000803FE7D0874B1B6813F4003F03D06368D0
:10513000002B00F0BF81236813F0020F75D0814B64
:105140005B6813F00C0F5FD07E4B5B6803F00C03C1
:10515000082B54D02369002B00F08A807A4B01225F
:105160001A60FFF705FD0546764B1B6813F0020F2A
:1051700075D1FFF7FDFC401B0228F5D903209EE105
:10518000704A136843F480331360636843B3FFF7D6
:10519000EFFC05466B4B1B6813F4003FCBD1FFF7C8
:1051A000E7FC401B6428F5D9032088E1B3F5A02F64
:1051B00009D0644B1A6822F480321A601A6822F40B
:1051C00080221A60E1E703F18043A3F53C331A68BB
:1051D00042F480221A601A6842F480321A60D4E7DE
:1051E000FFF7C6FC0546574B1B6813F4003FA2D0DF
:1051F000FFF7BEFC401B6428F5D903205FE1514B4B
:105200005B6813F4803FA5D14E4B1B6813F0020F6F
:1052100003D02369012B40F04F814A4A136823F0E1
:10522000F803616943EAC1031360236813F0080FB0
:1052300033D0A369002B5CD0434B0122C3F88024F8
:10524000FFF796FC05463F4B5B6A13F0020F21D136
:10525000FFF78EFC401B0228F5D903202FE1394AC5
:10526000136823F0F803616943EAC1031360DCE7C4
:10527000354B00221A60FFF77BFC0546314B1B685B
:1052800013F0020FD1D0FFF773FC401B0228F5D9B1
:10529000032014E10120FFF701FF236813F0040F3E
:1052A00000F09680274BDB6913F0805F34D1254BEB
:1052B000DA6942F08052DA61DB6903F080530193CE
:1052C000019B0125214B1B6813F4807F26D0E368E6
:1052D000012B3DD0002B53D103F1804303F5043360
:1052E0001A6A22F001021A621A6A22F004021A6291
:1052F00033E0154B0022C3F88024FFF739FC054644
:10530000104B5B6A13F0020FC7D0FFF731FC401B54
:105310000228F5D90320D2E00025D3E70B4A136811
:1053200043F480731360FFF723FC0646074B1B68AA
:1053300013F4807FCBD1FFF71BFC801B6428F5D9C9
:105340000320BCE000100240000042420070004018
:105350005F4A136A43F001031362E36833B3FFF754
:1053600007FC06465A4B1B6A13F0020F2FD1FFF7BA
:10537000FFFB801B41F288339842F3D903209EE063
:10538000052B09D0524B1A6A22F001021A621A6ADE
:1053900022F004021A62E0E74D4B1A6A42F004025E
:1053A0001A621A6A42F001021A62D6E7FFF7E0FBBE
:1053B0000646474B1B6A13F0020F08D0FFF7D8FBD5
:1053C000801B41F288339842F3D9032077E0E5B996
:1053D000E369002B72D03E4A526802F00C02082AA0
:1053E00056D0022B17D03B4B00221A66FFF7C0FBAA
:1053F0000446374B1B6813F0007F47D0FFF7B8FB1C
:10540000001B0228F5D9032059E0314AD36923F063
:105410008053D361DCE72F4B00221A66FFF7A8FB0D
:1054200005462B4B1B6813F0007F06D0FFF7A0FB4F
:10543000401B0228F5D9032041E0236AB3F5803FE1
:105440001AD023494B6823F47413226A606A02431A
:1054500013434B601F4B01221A66FFF789FB04467A
:105460001B4B1B6813F0007F0ED1FFF781FB001B65
:105470000228F5D9032022E0154A536823F40033AB
:10548000A1680B435360DCE7002018E0002016E021
:10549000012B16D00E4B5B6803F48031226A9142D7
:1054A00011D103F47013626A93420ED1002006E01A
:1054B00001207047012002E0012000E0002002B03E
:1054C00070BD0120FBE70120F9E70120F7E700BFED
:1054D00000100240000042420F4B5B6803F00C02D8
:1054E000082A01D00D487047C3F383420C49885CF9
:1054F00013F4803F0BD0084B5B68C3F34043094A69
:10550000D35C064A02FB00F0B0FBF3F07047064B99
:1055100003FB00F0704700BF0010024000127A0049
:10552000182404082824040800093D00002800F07D
:10553000A08070B50D460446524B1B6803F007036C
:105540008B420BD24F4A136823F007030B431360BF
:10555000136803F007038B4240F08D80236813F03B
:10556000020F17D013F0040F04D0474A536843F4D6
:10557000E0635360236813F0080F04D0424A536875
:1055800043F460535360404A536823F0F003A1682A
:105590000B435360236813F0010F31D06368012B74
:1055A00020D0022B25D0384A126812F0020F64D0A6
:1055B00035494A6822F0030213434B60FFF7D8FADB
:1055C0000646314B5B6803F00C036268B3EB820F55
:1055D00016D0FFF7CDFA801B41F288339842F0D9FC
:1055E000032045E0284A126812F4003FE0D1012070
:1055F0003EE0254A126812F0007FD9D1012037E041
:10560000204B1B6803F00703AB420AD91D4A1368FD
:1056100023F007032B431360136803F00703AB4227
:105620002DD1236813F0040F06D0174A536823F4D2
:10563000E063E1680B435360236813F0080F07D061
:10564000114A536823F46053216943EAC10353604C
:10565000FFF742FF0C4B5B68C3F303130B4AD35CA9
:10566000D8400B4B18600B4B1868FFF73DFA002031
:1056700070BD012070470120FAE70120F8E7012002
:10568000F6E700BF00200240001002409409040821
:1056900000000020E0000020014B1868704700BFA8
:1056A0000000002008B5FFF7F7FF044B5B68C3F369
:1056B0000223034AD35CD84008BD00BF001002405B
:1056C000A409040808B5FFF7E7FF044B5B68C3F3C0
:1056D000C223034AD35CD84008BD00BF001002407B
:1056E000A409040870B582B0044600230193006841
:1056F00001F049FC054610B1284602B070BD206893
:1057000001F03AFF38B90123A364A36C012B0BD03D
:105710002E46284614E00023A364206801F033FCE1
:105720000028F2D00546E7E70021206801F092FD4D
:105730000028EDD04FF08055DEE7019B0133019347
:10574000019A4FF6FE739A4213D896B90021206849
:1057500001F080FDE0B91249206801F059FE0646CB
:10576000C0B90021206801F0F9FBC30FE5D01E4647
:10577000E3E7019A4FF6FE739A420ED810F0804389
:1057800002D001236364B7E7002262641D46B3E7D9
:105790000546B1E74FF08055AEE74FF08075ABE7B7
:1057A000000010C1F0B589B004460F46FFF7E0F9DC
:1057B00006460023009301930821206801F0A0FC15
:1057C000054610B1284609B0F0BD216D09042068D6
:1057D00001F040FD05460028F4D14FF0FF3302935D
:1057E0000823039330230493022305930023069395
:1057F0000123079302A9206801F0B3FB206801F0A0
:1058000059FD054658B1DDE701F083FB4DF8250051
:105810000135FFF7ADF9831BB3F1FF3F3FD020689F
:10582000436B13F02A0F07D1436B13F4001FEBD126
:10583000436B13F4005FECD1436B13F0080F25D1D9
:10584000436B13F0020F24D1456B15F0200523D1D3
:1058500040F23A538363019A130203F47F0343EA4D
:105860000263110A01F47F410B4343EA12633B6078
:10587000009A130203F47F0343EA0263110A01F45E
:105880007F410B4343EA12637B609BE708258563F6
:1058900098E70225856395E72025856392E74FF019
:1058A00000458FE710B582B00446002100910191B8
:1058B000006801F053FB10F0007F13D169462046C9
:1058C000FFF770FF80B9019B13F4802F0ED0216D7C
:1058D0000904206801F0BEFC30B90221206801F003
:1058E000D1FC01E04FF4006002B010BD4FF08060C9
:1058F000FAE710B582B004460021009101910068DA
:1059000001F02CFB10F0007F13D169462046FFF711
:1059100049FF80B9019B13F4803F0ED0216D09042B
:10592000206801F097FC30B90021206801F0AAFC42
:1059300001E04FF4006002B010BD4FF08060FAE764
:1059400070B581B104460E46016D0904006801F08E
:10595000C9FC054608B1284670BD0021206801F049
:10596000FDFA3060F7E74FF00065F4E72DE9F04FFE
:1059700087B005460C4616469B46DDF840A0FFF76B
:10598000F7F8002C36D0814695F83470FFB2012F1D
:1059900040F005810023AB6306EB0B03EA6D9342F5
:1059A0002ED8032385F834302B680022DA626B6C22
:1059B000012B00D076024FF0FF3300934FEA4B23C8
:1059C0000193902302930223039300230493012362
:1059D00005936946286801F0C4FABBF1010F14D998
:1059E00002232B633146286801F0BAFBA0B9DDF829
:1059F000048038E0AB6B43F00063AB630127D3E076
:105A0000AB6B43F00073AB63CEE001232B633146F5
:105A1000286801F08DFBE9E72B68654A9A63AB6B58
:105A20001843A863012385F8343000232B63BBE0BF
:105A3000286801F06EFA2070C0F307236370C0F38A
:105A40000743A370000EE0700434A8F10408013687
:105A5000072EEDD9FFF78CF8A0EB0900504510D2C6
:105A6000BAF1000F0DD02868466B40F22A331E4071
:105A700015D1436B13F4004FECD0B8F1000FE9D00F
:105A8000E6E72B684A4A9A63AB6B43F00043AB638B
:105A9000012385F8343000232B63032784E0436B14
:105AA00013F4807F05D0BBF1010F02D96B6C032B7F
:105AB00038D12B685A6B12F0080F44D15A6B12F090
:105AC000020F4CD15A6B12F0200F54D12868436B4F
:105AD00013F4001F5BD0B8F1000F58D001F019FA91
